:020000040800F2
:10000000B813002039020008094D0008C147000854
:10001000054D00084508000869620008000000005E
:10002000000000000000000000000000E95100088E
:10003000810A000800000000794D000841520008C4
:10004000530200085302000853020008530200083C
:10005000530200085302000853020008530200082C
:10006000530200085302000853020008530200081C
:100070008908000853020008990800085302000884
:1000800053020008530200085302000853020008FC
:1000900049080008590800085302000853020008E4
:1000A00053020008530200085302000853020008DC
:1000B00053020008530200085302000853020008CC
:1000C00053020008530200085302000853020008BC
:1000D0005302000839620008530200084962000810
:1000E000530200085302000853020008530200089C
:1000F000530200085302000853020008530200088C
:10010000530200085302000853020008530200087B
:100110005302000853020008530200081953000854
:1001200053020008A9080008B90800085302000893
:10013000530200085302000853020008530200084B
:1001400069080008790800085302000853020008F3
:1001500053020008C9080008D908000859620008BD
:10016000530200085302000853020008530200081B
:100170005302000853020008530200080000000068
:10018000530200085302000800F002F800F045F89E
:100190000AA090E8000C82448344AAF10107DA45E2
:1001A00001D100F03AF8AFF2090EBAE80F0013F0EF
:1001B000010F18BFFB1A43F0010318478892000093
:1001C000A8920000103A24BF78C878C1FAD8520724
:1001D00024BF30C830C144BF04680C6070470000C1
:1001E0000023002400250026103A28BF78C1FBD840
:1001F000520728BF30C148BF0B6070471FB509F0D8
:1002000018F89DE8030000F005FA00F053F91FBD4F
:1002100010B5002000F034FA10BD00F05EFA11466F
:10022000FFF7ECFF08F0ECF900F096FA03B4FFF7E3
:10023000EFFF03BC00F0C8F90948804709480047B0
:10024000FEE7FEE7FEE7FEE7FEE7FEE7FEE7FEE786
:10025000FEE7FEE704480549054A064B70470000E3
:100260000553000889010008B80D0020B8130020CC
:10027000B80F0020B80F002053EA020C00F069808C
:100280002DE9F04B4FF00006002B1FBFB3FA83F5AA
:1002900003FA05F424FA05F65E4012BF1643B2FADB
:1002A00082F502FA05F4C5F120051EBF22FA05FC0D
:1002B00044EA0C04203556EA044C4FEA144418BFB3
:1002C000641C4FF000084FF00009904271EB030CE2
:1002D00039D3002919BFB1FA81F701FA07F6B0FA4C
:1002E00080F700FA07F6C7F120071EBF20FA07FCC7
:1002F00046EA0C062037B6FBF4FCA7EB0507103FD7
:1003000007F01F0BCBF120062CFA06F60CFA0BFBBC
:1003100044BFB3460026202FA4BF5E464FF0000B1B
:100320005BEA060C08BF4FF0010B19EB0B0948EB19
:100330000608ABFB027C06FB02CC0BFB03CCC01B0C
:1003400071EB0C01C1E70B46024641464846BDE849
:10035000F08B13B5084318BF4FF0FF300146AFF3E1
:100360000080BDE81C4070470B460146184600F06F
:1003700014B9032A40F2308010F0030C00F015800D
:1003800011F8013BBCF1020F624498BF11F801CB98
:1003900000F8013B38BF11F8013BA2F1040298BFFD
:1003A00000F801CB38BF00F8013B11F0030300F067
:1003B0002580083AC0F0088051F8043B083A51F80B
:1003C00004CBA0E80810F5E7121D5CBF51F8043B10
:1003D00040F8043BAFF30080D20724BF11F8013B83
:1003E00011F801CB48BF11F8012B24BF00F8013BE5
:1003F00000F801CB48BF00F8012B704710B5203A38
:10040000C0F00B80B1E81850A0E81850B1E81850BF
:10041000A0E81850203ABFF4F5AF5FEA027C24BF91
:10042000B1E81850A0E8185044BF18C918C0BDE87A
:1004300010405FEA827C24BF51F8043B40F8043B43
:1004400008BF7047D20728BF31F8023B48BF11F8F8
:10045000012B28BF20F8023B48BF00F8012B704752
:100460004FF0000200B5134694469646203922BF4D
:10047000A0E80C50A0E80C50B1F12001BFF4F7AF98
:10048000090728BFA0E80C5048BF0CC05DF804EB7A
:10049000890028BF40F8042B08BF704748BF20F8E8
:1004A000022B11F0804F18BF00F8012B70477047E6
:1004B0007047704770B5064C7C44064D7D4404E09F
:1004C0002046016808448047241DAC42F8D170BD25
:1004D000A88F0000B08F000070B5064600F07AF8D3
:1004E000056806F10B0020F00704B4429CBF002011
:1004F00070BD2B466A68BAB11068A04210D304F1EF
:10050000080188423CBF5068586007D351681019F1
:1005100041601168091B016058601460101D70BDB6
:1005200013465268002AE7D12146284600F05EF8BB
:100530000028DED170BD70B50446051F00F04AF8F2
:100540000068002C14BF446870BD002C18BFAC427A
:100550003CBF20466468F8D301680A18AA4218BF55
:10056000456003D12A680546114401602868411995
:10057000A1421CBF6C6070BD61686960216808445D
:10058000286070BD10B5002000F09BF8FFF740FE1A
:10059000BDE81040012000F017B82DE9F0410746F2
:1005A00015460E461020FFF797FF04000AD067603B
:1005B000C4E9026500F012F80168216004600020BF
:1005C000BDE8F0810120FBE701491820ABBEFEE742
:1005D00026000200004870472000002000487047B5
:1005E00050000020704770477047704738B5044688
:1005F0000A4600206946AFF30080002808BF38BDD6
:1006000002460099204600F08DF8012038BD0120F7
:1006100000F0C8B8F8B5AFF30080054600200C46DE
:10062000102000BF0646A819A0420DD932466946DF
:100630000020AFF30080070008BF00F0B3F8009877
:10064000A04218BF0546C419FFF7C4FF056007465E
:10065000F01D20F007004619284600F00AF8B442C1
:1006600008BFF8BDA21B31463868BDE8F84000F06D
:1006700059B800210160C0E901107047102070478F
:100680002DE9F0410646FFF7A9FF8046454613E0F5
:1006900016B1E068B0420ED120682860D4E90101AB
:1006A000D8F8007088472046FFF745FFD8F80000CB
:1006B000B842EBD100E025462C68002CE8D1BDE81B
:1006C000F08110B500F056F8BDE8104000F04DB8CC
:1006D000004870471800002070477546FFF7F8FF84
:1006E000AE4605006946534620F00700854618B01F
:1006F00020B5FFF7AFFDBDE820404FF000064FF0FA
:1007000000074FF000084FF0000BAC46ACE8C00902
:10071000ACE8C009ACE8C009ACE8C00921F00701A9
:100720008D467047034640688C46002818BF8842B3
:100730003CBF03464068F8D318681844884207D085
:100740000CF1030020F00700001D411A521A014667
:10075000081D0A60FFF7EFBE10B50446AFF3008036
:100760002046BDE81040FFF761BD002801D0FFF72B
:100770002BBF704710B5002102A000F01AF801202D
:1007800010BD0000534947414252543A2041626E25
:100790006F726D616C207465726D696E6174696FE2
:1007A0006E00000010B500F01DF8BDE81040FFF726
:1007B000DCBF70B505460C460A2000E06D1C00F059
:1007C00039F835B128780028F8D102E0641C00F02F
:1007D00031F814B120780028F8D1BDE870400A2023
:1007E00000F028B810B5012805D0002103A0FFF7BC
:1007F000E0FF012010BD09A1F8E70000534947526E
:10080000544D454D3A204F7574206F6620686561E0
:1008100070206D656D6F7279000000003A204865A8
:100820006170206D656D6F727920636F7272757083
:100830007465640008B569468DF800000320ABBEFE
:1008400008BD0000FFE7FEE780B540F65010C2F299
:10085000000000F031FC80BD80B540F65010C2F2BF
:10086000000000F029FC80BD80B540F67810C2F28F
:10087000000000F021FC80BD80B540F67810C2F287
:10088000000000F019FC80BD80B540F66020C2F287
:10089000000001F01FF980BD80B540F6C020C2F213
:1008A000000001F017F980BD80B540F62030C2F29B
:1008B000000001F00FF980BD80B540F6A010C2F233
:1008C000000001F007F980BD80B540F68030C2F22B
:1008D000000001F0FFF880BD80B540F60020C2F2B4
:1008E000000001F0F7F880BD82B001900198007817
:1008F00010384AF6AB21CAF6AA21A0FB0110000964
:100900000090009949F26E20C0F60000405C019909
:10091000C8650098042807D3FFE7019908680422F6
:1009200062F30900886506E00199086840F2FF3229
:1009300090438865FFE70198806D02B07047000022
:1009400086B0059000208DF813000598806A03900A
:100950000598806910BBFFE70398029003281BD815
:100960000299DFE801F0020D0218059890F82F00B7
:10097000C00720B1FFE701208DF81300FFE70CE06E
:100980000598C06AB0F1C07F04D1FFE701208DF85F
:100990001300FFE701E000E0FFE745E0059880690C
:1009A000B0F5005F25D1FFE70398019003281ED81A
:1009B0000199DFE801F00206021101208DF8130011
:1009C00016E0059890F82F00C00720B1FFE701203E
:1009D0008DF81300FFE70BE00598C06AB0F1C07F07
:1009E00004D1FFE701208DF81300FFE700E0FFE7E7
:1009F00019E003980090032804D3FFE70098032828
:100A000004D00EE001208DF813000BE0059890F85B
:100A10002F00C00720B1FFE701208DF81300FFE78A
:100A200000E0FFE7FFE7FFE79DF8130006B070471F
:100A300084B00390029101920093039801680868C2
:100A400020F48020086000980399096848600398A2
:100A50008068402809D1FFE70198039909688860F8
:100A6000029803990968C86008E002980399096828
:100A70008860019803990968C860FFE704B070476F
:100A80007047000072B6FFE7FEE7000084B00290F6
:100A90000191029890F820008DF803009DF8030062
:100AA000012805D0FFE79DF8030002280AD1FFE7DF
:100AB000019A0298016848691043486100208DF846
:100AC0000F0008E00299486A40F480204862012043
:100AD0008DF80F00FFE79DF80F0004B0704700008D
:100AE00088B00690059104920393069890F8200030
:100AF0008DF8070006980068806800900598806867
:100B000008B9FFE700E0FFE79DF80700012806D0DD
:100B1000FFE79DF80700022840F08080FFE79DF87E
:100B20000300400700280CD4FFE79DF803000007EE
:100B3000002806D4FFE79DF80300C006002864D50E
:100B4000FFE70098C0F301600290029901208840FD
:100B5000039908600598806868B9FFE705980168FF
:100B6000C06840EA415006990968029A01EB0211F7
:100B7000C1F880010EE005994A688868C96840EAB2
:100B8000C200084306990968029A01EB0211C1F8F4
:100B90008001FFE70598006906990968029A01EB50
:100BA0000211C1F884010598007D01280CD1FFE7EE
:100BB00006980068029900EB0111D1F8840140F415
:100BC0008070C1F88401FFE70498406806990968BD
:100BD000029A01EB0211C1F88C0104980068069991
:100BE0000968029A01EB0211C1F8880106980068B1
:100BF000029900EB0111D1F8800140F00100C1F829
:100C0000800100208DF81F0011E00699486A40F429
:100C10000010486201208DF81F0008E00699486A1C
:100C200040F48020486201208DF81F00FFE79DF806
:100C30001F0008B07047000086B00490039104982C
:100C400090F820008DF803009DF80300012806D0DD
:100C5000FFE79DF80300022840F0B080FFE746F26E
:100C60000040C4F2000001900199D1F8000240F068
:100C70000100C1F800020199D1F8000220F47C5073
:100C8000C1F800020398426A0199D1F8000240EAD3
:100C90000220C1F800020398406900F01F01012002
:100CA00088400290029A0199D1F81C029043C1F841
:100CB0001C020398C069F0B9FFE7029A0199D1F8C4
:100CC0000C029043C1F80C02039A9088D1685269D3
:100CD00040EA0140019901EBC201C1F84002039AC8
:100CE00010889168526940EA0140019901EBC20104
:100CF000C1F84402FFE70398C06901281ED1FFE74D
:100D0000029A0199D1F80C021043C1F80C02039A1F
:100D100090881168526940EA0140019901EBC201D3
:100D2000C1F84002039A90899168526940EA0140F3
:100D3000019901EBC201C1F84402FFE70398806901
:100D400040B9FFE7029A0199D1F804029043C1F833
:100D5000040207E0029A0199D1F804021043C1F895
:100D60000402FFE70398006940B9FFE7029A01997E
:100D7000D1F814029043C1F8140207E0029A0199D5
:100D8000D1F814021043C1F81402FFE70398006A77
:100D9000012808D1FFE7029A0199D1F81C021043FB
:100DA000C1F81C02FFE70199D1F8000220F0010010
:100DB000C1F8000200208DF8170008E00499486A85
:100DC00040F48020486201208DF81700FFE79DF86D
:100DD000170006B07047000081B0009001B0704766
:100DE00084B00390029100200190039890F82000B5
:100DF0008DF803009DF80300012805D0FFE79DF85A
:100E00000300022812D1FFE7029838B9FFE70398E0
:100E10000068C06800F00300019006E003980068D5
:100E2000006900F003000190FFE7FFE7019804B0BC
:100E30007047000086B004900391029201930498D9
:100E400090F820008DF803009DF80300012806D0DB
:100E5000FFE79DF80300022840F0E880FFE70398D1
:100E600080B9FFE704980068C068800748B9FFE7C9
:100E70000499486A40F40010486201208DF8170078
:100E8000DDE00FE0049800680069800748B9FFE7DB
:100E90000499486A40F40010486201208DF8170058
:100EA000CDE0FFE704980068039900EB0110D0F84B
:100EB000B00100F00400029988600298806858B977
:100EC000FFE704980068039900EB0110D0F8B00127
:100ED000400D029908600AE004980068039900EB4D
:100EE0000110D0F8B001C00802994860FFE70498EB
:100EF0000068039900EB0110D0F8B00100F0020087
:100F00000299C86004980068039900EB0110D0F8BA
:100F1000B40100F00F00082804D3FFE7029908206D
:100F200008610BE004980068039900EB0110D0F809
:100F3000B40100F00F0002990861FFE7049800680F
:100F4000039900EB0110D0F8B40180B2000A0299B5
:100F5000886104980068039900EB0110D0F8B4018F
:100F6000000C0299486104980068039900EB011095
:100F7000D0F8B8010199087004980068039900EB53
:100F80000110D0F8B801000A01994870049800686F
:100F9000039900EB0110D0F8B801000C019988709A
:100FA00004980068039900EB0110D0F8B801000E16
:100FB0000199C87004980068039900EB0110D0F8FB
:100FC000BC010199087104980068039900EB0110B5
:100FD000D0F8BC01000A019948710498006803998F
:100FE00000EB0110D0F8BC01000C01998871049845
:100FF0000068039900EB0110D0F8BC01000E0199C4
:10100000C871039838B9FFE704980168C86840F0D0
:101010002000C86006E004980168086940F02000DC
:101020000861FFE700208DF8170008E00499486A7E
:1010300040F48020486201208DF81700FFE79DF8FA
:10104000170006B07047000083B0029000200190A6
:10105000029890F820008DF803009DF80300012805
:1010600005D0FFE79DF80300022822D1FFE7029890
:10107000006880684001002804D5FFE7019801302E
:101080000190FFE70298006880680001002804D5FD
:10109000FFE7019801300190FFE70298006880683F
:1010A000C000002804D5FFE7019801300190FFE758
:1010B000FFE7019803B0704780B58AB0099000201F
:1010C000089009980068406907900998006840688E
:1010D0000690099800688068059009980068C068C3
:1010E0000490099800680069039009980068806975
:1010F00002909DF81C00C007002800F09480FFE7D4
:101100009DF81400C00758B3FFE709980168012053
:1011100088609DF814008007002804D5FFE709982F
:1011200000F028FC1BE09DF814004007002805D5BE
:10113000FFE7089840F4006008900FE09DF8140065
:101140000007002805D5FFE7089840F48050089074
:1011500003E0099800F00AFCFFE7FFE7FFE7FFE77D
:101160009DF81500C00760B3FFE7099801684FF4C8
:10117000807088609DF815008007002804D5FFE77F
:10118000099800F0FFFB1BE09DF8150040070028C0
:1011900005D5FFE7089840F4005008900FE09DF84F
:1011A00015000007002805D5FFE7089840F48040A7
:1011B000089003E0099800F0E1FBFFE7FFE7FFE795
:1011C000FFE79DF81600C00760B3FFE709980168C4
:1011D0004FF4803088609DF816008007002804D501
:1011E000FFE7099800F0D6FB1BE09DF816004007CA
:1011F000002805D5FFE7089840F4004008900FE06C
:101200009DF816000007002805D5FFE7089840F470
:101210008030089003E0099800F0B8FBFFE7FFE793
:10122000FFE7FFE7FFE79DF81C000007002810D547
:10123000FFE79DF81000C006002809D5FFE70898D1
:1012400040F400700890099801681020C860FFE71A
:10125000FFE79DF81C00400700280FD5FFE79DF829
:1012600010000007002808D5FFE70998016808204A
:10127000C860099800F0DEFAFFE7FFE79DF81C0060
:10128000800700280BD5FFE709980068C068800731
:1012900020B1FFE7099800F0D1FAFFE7FFE79DF8DA
:1012A0001C004006002810D5FFE79DF80C00C00682
:1012B000002809D5FFE7089840F480600890099855
:1012C000016810200861FFE7FFE79DF81C00800619
:1012D00000280FD5FFE79DF80C000007002808D56F
:1012E000FFE70998016808200861099800F0AAFA48
:1012F000FFE7FFE79DF81C00C00600280BD5FFE7BD
:10130000099800680069800720B1FFE7099800F09C
:101310009DFAFFE7FFE79DF81E00800700280FD524
:10132000FFE79DF81800C006002808D5FFE70998D8
:10133000016810204860099800F0CEFAFFE7FFE747
:101340009DF81E00C00778B1FFE79DF81800000760
:10135000002808D5FFE70998016808204860099827
:1013600000F01CFBFFE7FFE79DF81D0000060028CA
:1013700040F18D80FFE79DF818004007002840F1FC
:101380008180FFE79DF81D00C00750B1FFE79DF881
:101390000800C00728B1FFE7089840F00100089056
:1013A000FFE79DF81D00800700280BD5FFE79DF89B
:1013B00008008007002805D5FFE7089840F00200E4
:1013C0000890FFE79DF81D00400700280BD5FFE7B8
:1013D0009DF808004007002805D5FFE7089840F071
:1013E00004000890FFE79DF81D000007002848D57D
:1013F000FFE79DF8080010F0700F42D0FFE7029859
:1014000000F0700001460191102814D0FFE7019808
:10141000202815D0FFE70198302816D0FFE7019863
:10142000402817D0FFE70198502818D0FFE701980F
:10143000602819D01DE0089840F00800089019E0D5
:10144000089840F01000089014E0089840F0200040
:1014500008900FE0089840F0400008900AE00898D3
:1014600040F08000089005E0089840F480700890F3
:1014700000E0FFE709980168886920F07000886142
:10148000FFE7FFE70998016804204860FFE7089834
:1014900048B1FFE7089A0999486A104348620998D9
:1014A000FFF79AFCFFE70AB080BD000080B584B06A
:1014B0000290029820B9FFE701208DF80F00E0E0CC
:1014C000029890F8200020B9FFE7029800F0DEF8BB
:1014D000FFE702980168086840F00100086000F02A
:1014E0007FFF0190FFE7029800684068C007A8B935
:1014F000FFE700F075FF0199401A0B280DD3FFE7B5
:101500000299486A40F4003048620299052081F847
:10151000200001208DF80F00B3E0E4E70298016895
:10152000086820F00200086000F05AFF0190FFE711
:101530000298006840688007002815D5FFE700F092
:101540004FFF0199401A0B280DD3FFE70299486A13
:1015500040F4003048620299052081F82000012003
:101560008DF80F008DE0E3E70298007E012807D197
:10157000FFE702980168086840F08000086006E014
:1015800002980168086820F080000860FFE7029870
:10159000407E012807D1FFE702980168086840F003
:1015A0004000086006E002980168086820F04000EA
:1015B0000860FFE70298807E012807D1FFE70298C4
:1015C0000168086840F02000086006E002980168A1
:1015D000086820F020000860FFE70298C07E01281C
:1015E00007D1FFE702980168086820F01000086042
:1015F00006E002980168086840F010000860FFE704
:101600000298007F012807D1FFE702980168086867
:1016100040F00800086006E002980168086820F0C1
:1016200008000860FFE70298407F012807D1FFE724
:1016300002980168086840F00400086006E002981B
:101640000168086820F004000860FFE7029B196841
:101650005A689868D3F80CC040EA0C00D3F810C060
:1016600040EA0C005B691843013A1043C8610299D3
:1016700000204862029A012182F820108DF80F00A4
:10168000FFE79DF80F0004B080BD000080B592B068
:101690001190002010900F900E900D900C901198CA
:1016A000006846F20041C4F20001884252D1FFE7CF
:1016B00040F27800C2F20000016801310160006868
:1016C000012812D1FFE7FFE700200B9043F640000E
:1016D000C4F20200016841F000710160006800F08E
:1016E00000700B900B98FFE7FFE7FFE700200A90E0
:1016F00043F63000C4F20200016841F008010160C5
:10170000006800F008000A900A98FFE703200C9098
:1017100002210D91002105910E910F90092010904A
:1017200040F60040C4F202000CA900F07DFC059ACE
:1017300014200490114600F0EBFE049800F0DEFE49
:10174000059A15200690114600F0E2FE069800F07A
:10175000D5FE6DE01198006846F60001C4F2000164
:10176000884264D1FFE7FFE70020099043F640007C
:10177000C4F20200016841F080610160006800F07D
:10178000806009900998FFE740F27800C2F20000FB
:101790000168013101600068012812D1FFE7FFE70D
:1017A0000020089043F64000C4F20200016841F0B6
:1017B00000710160006800F0007008900898FFE771
:1017C000FFE7FFE70020079043F63000C4F2020075
:1017D000016841F002010160006800F0020007901A
:1017E0000798FFE760200C9002200D9000200290E7
:1017F0000E9003200F900920109040F20040C4F298
:1018000002000CA900F010FC029A40200190114641
:1018100000F07EFE019800F071FE029A41200390D4
:10182000114600F075FE039800F068FEFFE7FFE741
:1018300012B080BD81B0009001B0704781B00090BF
:1018400001B0704781B0009001B0704780B584B09E
:10185000039006F015F801688A680021904702900D
:10186000029801684A6940F69851C2F20001904717
:101870000398019002980168896988470146019898
:10188000884226D1FFE740F2B830C2F20000009053
:1018900040F69851C2F2000105F02AF9009840F68E
:1018A000B051C2F20001B1F90010022205F080F936
:1018B0000098029905F0A2F90098012105F06CFF4B
:1018C000BCEEC00A40F69450C2F2000080ED000A5F
:1018D000FFE704B080BD000081B0009001B0704708
:1018E00080B584B00290029890F8200001282FD192
:1018F000FFE70299022081F8200002980168086839
:1019000020F00100086000F06BFD0190FFE70298F5
:1019100000684068C007A8B1FFE700F061FD0199C9
:10192000401A0B280DD3FFE70299486A40F40030B3
:1019300048620299052081F8200001208DF80F00EF
:101940000FE0E4E70299002048628DF80F0008E0FC
:101950000299486A40F40020486201208DF80F0087
:10196000FFE79DF80F0004B080BD000081B000903B
:1019700001B0704781B0009001B0704781B0009015
:1019800001B0704781B0009001B0704781B0009005
:1019900001B0704781B0009001B0704781B00090F5
:1019A00001B0704780B584B002900298806D0190BC
:1019B00000F016FD0090029890F8350002280DD036
:1019C000FFE7029980204865FFE70299002081F82F
:1019D0003400FFE701208DF80F0055E00298016800
:1019E000086820F01600086002980168486920F035
:1019F000800048610298006C20B9FFE70298806C73
:101A000038B1FFE702980168086820F00800086014
:101A1000FFE702980168086820F001000860FFE70E
:101A2000029800680068C007C8B1FFE700F0D8FC62
:101A30000099401A062811D3FFE702992020486533
:101A40000299032081F83500FFE70299002081F810
:101A50003400FFE703208DF80F0015E0E0E702985F
:101A6000C16D3F208840019988600299012081F86A
:101A70003500FFE70299002081F83400FFE7FFE717
:101A800000208DF80F00FFE79DF80F0004B080BD27
:101A900082B00090009890F83500022807D0FFE748
:101AA00000998020486501208DF807000EE000991C
:101AB000052081F8350000980168086820F00100D1
:101AC0000860FFE700208DF80700FFE79DF807009A
:101AD00002B0704780B586B005900020039040F2B8
:101AE0000000C2F20000006848F2B511C1F64E31A4
:101AF000A0FB0110800A02900598806D019001986A
:101B00000068049004980599C96DC8400007002832
:101B10001AD5FFE70598006800684007002812D52D
:101B2000FFE705980168086820F004000860059840
:101B3000C16D08208840019988600599486D40F082
:101B400001004865FFE7FFE704980599C96DC840A3
:101B5000C007A0B1FFE705980068406900060028AB
:101B60000CD5FFE70598C16D012088400199886078
:101B70000599486D40F002004865FFE7FFE70498CB
:101B80000599C96DC8404007002814D5FFE705989E
:101B900000680068800700280CD5FFE70598C16D34
:101BA00004208840019988600599486D40F0040040
:101BB0004865FFE7FFE704980599C96DC840C0066E
:101BC000002847D5FFE7059800680068000700284F
:101BD0003FD5FFE70598C16D1020884001998860C6
:101BE000059800680068400300281AD5FFE70598AB
:101BF000006800680003002809D4FFE70598006C1E
:101C000020B1FFE70598016C8847FFE708E00598D9
:101C1000806C20B1FFE70598816C8847FFE7FFE7FC
:101C200016E0059800680068C005002807D4FFE7A3
:101C300005980168086820F008000860FFE705982B
:101C4000006C20B1FFE70598016C8847FFE7FFE7CC
:101C5000FFE7FFE704980599C96DC8408006002892
:101C600040F18D80FFE7059800680068C0060028F5
:101C700040F18480FFE70598C16D202088400199DC
:101C80008860059890F83500052834D1FFE705985D
:101C90000168086820F01600086005980168486926
:101CA00020F0800048610598006C20B9FFE7059896
:101CB000806C38B1FFE705980168086820F00800DB
:101CC0000860FFE70598C16D3F2088400199886052
:101CD0000599012081F83500FFE70599002081F87A
:101CE0003400FFE70598006D20B1FFE70598016D0E
:101CF0008847FFE77BE005980068006840030028FC
:101D00001AD5FFE70598006800680003002809D489
:101D1000FFE70598406C20B1FFE70598416C8847C4
:101D2000FFE708E00598C06B20B1FFE70598C16B9D
:101D30008847FFE7FFE720E0059800680068C005D6
:101D4000002811D4FFE705980168086820F010000A
:101D500008600599012081F83500FFE7059900200A
:101D600081F83400FFE7FFE70598C06B20B1FFE77B
:101D70000598C16B8847FFE7FFE7FFE7FFE7059896
:101D8000406DA0B3FFE70598406DC00730B3FFE793
:101D90000599052081F8350005980168086820F04C
:101DA00001000860FFE70398013003900299884220
:101DB00001D9FFE707E0FFE7059800680068C00762
:101DC0000028F0D1FFE70599012081F83500FFE7F1
:101DD0000599002081F83400FFE7FFE70598C06C03
:101DE00020B1FFE70598C16C8847FFE7FFE706B021
:101DF00080BD000080B586B004900020039000F004
:101E0000EFFA0290049820B9FFE701208DF817003F
:101E1000A3E00498406A08B1FFE7FFE704990220B5
:101E200081F83500FFE70499002081F83400FFE7CE
:101E300004980168086820F001000860FFE7049832
:101E400000680068C00790B1FFE700F0C9FA029986
:101E5000401A06280AD3FFE7049920204865049910
:101E6000032081F835008DF8170076E0E7E7049845
:101E7000006800680390039848F23F01CFF2100118
:101E800008400390049900914868D1F808C0CB68D5
:101E90000A6940EA0C00184310434A6910438A69F2
:101EA0001043CA691043096A014303980843039029
:101EB0000498406A042808D1FFE70499C86A096BAE
:101EC0000143039808430390FFE7039804990968C6
:101ED00008600498006840690390039820F00700A8
:101EE00003900498416A0398084303900498406A59
:101EF00004281AD1FFE70498816A039808430390E5
:101F00000498C06A80B1FFE70498FEF719FD50B14C
:101F1000FFE70499402048650499012081F83500C5
:101F20008DF8170019E0FFE7FFE7039804990968A7
:101F300048610498FEF7D8FC01900498C16D3F20D9
:101F4000884001998860049900204865049A01211D
:101F500082F835108DF81700FFE79DF8170006B0DE
:101F600080BD000080B588B006900591049203936F
:101F700000208DF80B000698806D0190FFE7069811
:101F800090F83400012804D1FFE702208DF81F00EB
:101F900045E00699012081F83400FFE7FFE7069845
:101FA00090F8350001282BD1FFE70699022081F82F
:101FB000350006990020486506980599049A039B08
:101FC000FEF736FD0698C16D3F2088400199886074
:101FD00006980168086840F0160008600698006CD2
:101FE00038B1FFE706980168086840F0080008600B
:101FF000FFE706980168086840F00100086009E002
:10200000FFE70699002081F83400FFE702208DF8F1
:102010000B00FFE79DF80B008DF81F00FFE79DF810
:102020001F0008B080BD00008EB00D900C91002004
:102030000A90099008900B90FFE70B980F2800F288
:10204000CC81FFE70B99012088400A900C9800682A
:102050000A990840099009980A99884240F0B88185
:10206000FFE70C98406800F00300012807D0FFE765
:102070000C98406800F0030002282FD1FFE70D986C
:10208000806808900B984100032000FA01F108983D
:10209000884308900C98C0680B99490000FA01F138
:1020A00008980843089008980D9988600D98406832
:1020B00008900B99012000FA01F1089888430890D4
:1020C0000C984068C0F300100B9900FA01F10898D1
:1020D0000843089008980D994860FFE70C984068FD
:1020E00000F00300032818D0FFE70D98C06808909F
:1020F0000B984100032000FA01F1089888430890EA
:102100000C9880680B99490000FA01F1089808437F
:10211000089008980D99C860FFE70C98406800F097
:102120000300022826D1FFE70D980B996FF00302F8
:1021300002EA51010844006A08900B9800F0070079
:1021400081000F2000FA01F10898884308900C984C
:1021500000690B9901F00701890000FA01F1089864
:102160000843089008980D990B9B02EA530211440A
:102170000862FFE70D98006808900B984100032063
:1021800000FA01F10898884308900C98406800F024
:1021900003000B99490000FA01F1089808430890E0
:1021A00008980D9908600C9880798007002800F045
:1021B0000E81FFE7FFE70020079043F64400C4F2DA
:1021C0000200016841F480410160006800F4804031
:1021D00007900798FFE70B9820F0030043F60801EB
:1021E000C4F20101405808900B9800F003008100F0
:1021F0000F2000FA01F10898884308900D980021FB
:10220000C4F20201884203D1FFE7002006905EE09D
:102210000D9840F20041C4F20201884203D1FFE769
:102220000120059050E00D9840F60001C4F2020133
:10223000884203D1FFE70220049042E00D9840F667
:102240000041C4F20201884203D1FFE7032003905A
:1022500034E00D9841F20001C4F20201884203D13A
:10226000FFE70420029026E00D9841F20041C4F2FD
:102270000201884203D1FFE70520019018E00D9884
:1022800041F60001C4F20201884203D1FFE70620B3
:1022900000900AE00D9941F60042C4F202020820C3
:1022A000914208BF07200090FFE700980190FFE7E8
:1022B00001980290FFE702980390FFE703980490CB
:1022C000FFE704980590FFE705980690FFE706985A
:1022D000C0B20B9901F00301890000FA01F10898DE
:1022E0000843089008980B9921F0030143F608026F
:1022F000C4F20102885043F60840C4F201000068AD
:10230000089009990898884308900C988079C0062D
:10231000002805D5FFE70999089808430890FFE7CA
:10232000089843F60841C4F20101086043F60C40E6
:10233000C4F2010000680890099908988843089041
:102340000C9880798006002805D5FFE70999089840
:1023500008430890FFE7089843F60C41C4F20101D6
:10236000086043F60440C4F201000068089009992F
:102370000898884308900C9880798007002805D534
:10238000FFE70999089808430890FFE7089843F683
:102390000441C4F20101086043F60040C4F20100A8
:1023A0000068089009990898884308900C988079EB
:1023B000C00728B1FFE70999089808430890FFE78C
:1023C000089843F60041C4F201010860FFE7FFE707
:1023D000FFE70B9801300B902FE60EB0704700001E
:1023E00040F6B450C2F200000068704740F20C00A2
:1023F000C2F20000027840F6B451C2F2000108684F
:10240000104408607047000080B543F60041C4F2F4
:102410000201086840F400700860086840F48060B9
:102420000860086840F480700860032000F08AF8B3
:102430000F2000F005F800F03BF8002080BD000000
:1024400080B582B0009040F20000C2F20000006847
:1024500040F20C01C2F200010A784FF47A71B1FB2C
:10246000F2F1B0FBF1F000F0A5FD20B1FFE7012093
:102470008DF8070018E000980F280DD8FFE70099A5
:102480004FF0FF30002200F043F8009840F21001B6
:10249000C2F20001086003E001208DF8070003E0AC
:1024A00000208DF80700FFE79DF8070002B080BD0F
:1024B00082B0FFE70020019043F64400C4F202001E
:1024C000016841F480410160006800F4804001909F
:1024D0000198FFE7FFE70020009043F64000C4F2B8
:1024E0000200016841F080510160006800F08050F6
:1024F00000900098FFE702B07047000080B582B0FE
:102500008DF807009DF9070005F07CFF02B080BD43
:1025100080B586B08DF817000491039200200290D8
:1025200005F088FF02909DF9170001900298049928
:10253000039A02F0EBFB0146019805F083FF06B019
:1025400080BD000080B582B00190019805F09CFF2D
:1025500002B080BD80B584B002900191029820B98C
:10256000FFE701208DF80F0021E1019843F60041BB
:10257000C4F20201096801F00701884212D9FFE79D
:10258000019943F60040C4F202000170006800F0B7
:1025900007000199884204D0FFE701208DF80F0061
:1025A00005E1FFE702980078800700282AD5FFE7B9
:1025B000029800784007002809D5FFE743F6080194
:1025C000C4F20201086840F4E0500860FFE7029896
:1025D00000780007002809D5FFE743F60801C4F298
:1025E0000201086840F460400860FFE743F6080114
:1025F000C4F20201086820F0F000029A92681043C9
:102600000860FFE702980078C00700286ED0FFE757
:1026100002984068012811D1FFE743F60000C4F298
:102620000200006800F400310020B0EB514F04D1EB
:10263000FFE701208DF80F00B9E02CE00298406818
:10264000022805D0FFE702984068032811D1FFE770
:1026500043F60000C4F20200006800F000710020A0
:10266000B0EB516F04D1FFE701208DF80F009EE021
:1026700010E043F60000C4F20200006800F002011E
:102680000020B0EB510F04D1FFE701208DF80F00BF
:102690008DE0FFE7FFE743F60801C4F20201086896
:1026A00020F00300029A526810430860FFF798FE7A
:1026B0000090FFE743F60800C4F20200006800F053
:1026C0000C0002994968B0EB810F0ED0FFE7FFF7CD
:1026D00087FE0099401A41F28931884204D3FFE70E
:1026E00003208DF80F0062E0E4E7FFE7019843F66E
:1026F0000041C4F20201096801F00701884212D2C8
:10270000FFE7019943F60040C4F20200017000683F
:1027100000F007000199884204D0FFE701208DF8FE
:102720000F0044E0FFE702980078400700280CD52E
:10273000FFE743F60801C4F20201086820F4E05004
:10274000029AD26810430860FFE7029800780007F9
:1027500000280DD5FFE743F60801C4F2020108681E
:1027600020F46040029A126940EAC2000860FFE764
:1027700000F04CF843F60801C4F202010968C9B23E
:102780000A0949F25621C0F60001895CC84040F2AE
:102790000001C2F20001086040F21000C2F2000025
:1027A0000068FFF74DFE00208DF80F00FFE79DF851
:1027B0000F0004B080BD000040F20000C2F2000033
:1027C0000068704780B5FFF7F7FF43F60801C4F2D1
:1027D00002010968C1F3822249F26621C0F60001B4
:1027E000895CC84080BD000080B5FFF7E5FF43F677
:1027F0000801C4F20201096889B24A0B49F2662154
:10280000C0F60001895CC84080BD000080B586B07C
:102810000020059004900390029043F60800C4F253
:102820000200006800F00C000146019140B1FFE792
:10283000019804280AD0FFE7019808280CD04FE03F
:1028400042F20040C0F2F40002904FE041F6003046
:10285000C0F2B700029049E043F60400C4F202005F
:10286000016801F03F01059100684002002813D57E
:10287000FFE743F60400C4F202000068C0F38810CA
:1028800041F60031C0F2B701A0FB0101059A002317
:10289000FDF7F2FC049012E043F60400C4F20200DB
:1028A0000068C0F3881042F20041C0F2F401A0FBBE
:1028B0000101059A0023FDF7DFFC0490FFE743F6D2
:1028C0000400C4F20200006800F44031022000EB72
:1028D000D130039004980399B0FBF1F0029005E029
:1028E00042F20040C0F2F4000290FFE7029806B006
:1028F00080BD000080B586B00490049820B9FFE741
:1029000001208DF8170050E304980078C0070028D4
:1029100000F0A580FFE743F60800C4F2020000685B
:1029200000F00C00042813D0FFE743F60800C4F2BF
:102930000200006800F00C0008281ED1FFE743F6F3
:102940000400C4F2020000684002002815D5FFE729
:1029500043F60000C4F20200006800F400310020D9
:10296000B0EB514F08D0FFE70498406820B9FFE76B
:1029700001208DF8170018E370E0FFE70498406825
:10298000B0F5803F09D1FFE743F60001C4F2020130
:10299000086840F48030086020E004984068B0F592
:1029A000A02F0DD1FFE743F60001C4F20201086831
:1029B00040F480200860086840F4803008600CE033
:1029C00043F60001C4F20201086820F48030086078
:1029D000086820F480200860FFE7FFE7FFE704981D
:1029E0004068E8B1FFE7FFF7FBFC0390FFE743F621
:1029F0000000C4F20200006800F400310020B0EBD7
:102A0000514F0CD1FFE7FFF7EBFC0399401A652803
:102A100004D3FFE703208DF81700C6E2E7E71CE0C8
:102A2000FFF7DEFC0390FFE743F60000C4F202006C
:102A3000006800F400310020B0EB514F0CD0FFE7EC
:102A4000FFF7CEFC0399401A652804D3FFE7032063
:102A50008DF81700A9E2E7E7FFE7FFE7FFE7049833
:102A600000788007002840F19680FFE743F60800D1
:102A7000C4F20200006810F00C0F13D0FFE743F619
:102A80000800C4F20200006800F00C0008282CD1F5
:102A9000FFE743F60400C4F2020000684002002889
:102AA00023D4FFE743F60000C4F20200006800F000
:102AB00002010020B0EB510F09D0FFE70498C06875
:102AC000012804D0FFE701208DF817006DE243F6DE
:102AD0000001C4F20201086820F0F800049A1269AB
:102AE00040EAC2000860FFE754E00498C06870B391
:102AF000FFE70021C4F2472101200860FFF770FCC6
:102B00000390FFE743F60000C4F20200006800F003
:102B100002010020B0EB510F0CD1FFE7FFF760FC82
:102B20000399401A032804D3FFE703208DF8170008
:102B30003BE2E7E743F60001C4F20201086820F037
:102B4000F800049A126940EAC200086021E00021FE
:102B5000C4F2472100200860FFF742FC0390FFE722
:102B600043F60000C4F20200006800F002010020F9
:102B7000B0EB510F0CD0FFE7FFF732FC0399401A7E
:102B8000032804D3FFE703208DF817000DE2E7E7E1
:102B9000FFE7FFE7FFE704980078000700284BD520
:102BA000FFE70498406918B3FFE740F68061C4F27C
:102BB000472101200860FFF713FC0390FFE743F66D
:102BC0007400C4F20200006800F002010020B0EBC3
:102BD000510F0CD1FFE7FFF703FC0399401A0328BC
:102BE00004D3FFE703208DF81700DEE1E7E722E0DA
:102BF00040F68061C4F2472100200860FFF7F0FB37
:102C00000390FFE743F67400C4F20200006800F08E
:102C100002010020B0EB510F0CD0FFE7FFF7E0FB03
:102C20000399401A032804D3FFE703208DF8170007
:102C3000BBE1E7E7FFE7FFE70498007840070028DB
:102C400040F1CE80FFE700208DF8070043F64000FA
:102C5000C4F202000068C000002815D4FFE7FFE7B7
:102C60000020009043F64000C4F20200016841F0E9
:102C700080510160006800F0805000900098FFE7EC
:102C800001208DF80700FFE747F20000C4F20000C2
:102C90000068C005002822D4FFE747F20001C4F213
:102CA0000001086840F480700860FFF799FB03900A
:102CB000FFE747F20000C4F200000068C0050028EA
:102CC0000CD4FFE7FFF78CFB0399401A032804D3C9
:102CD000FFE703208DF8170067E1EAE7FFE7FFE76A
:102CE00004988068012809D1FFE743F67001C4F217
:102CF0000201086840F0010008601FE00498806845
:102D000005280DD1FFE743F67001C4F202010868FF
:102D100040F004000860086840F0010008600CE022
:102D200043F67001C4F20201086820F00100086057
:102D3000086820F004000860FFE7FFE7FFE7049859
:102D40008068F8B1FFE7FFF74BFB0390FFE743F61E
:102D50007000C4F20200006800F002010020B0EB35
:102D6000510F0ED1FFE7FFF73BFB0399401A41F2E9
:102D70008931884204D3FFE703208DF8170014E15E
:102D8000E5E71EE0FFF72CFB0390FFE743F670003A
:102D9000C4F20200006800F002010020B0EB510F05
:102DA0000ED0FFE7FFF71CFB0399401A41F289316F
:102DB000884204D3FFE703208DF81700F5E0E5E72C
:102DC000FFE79DF80700012809D1FFE743F640011E
:102DD000C4F20201086820F080500860FFE7FFE7B6
:102DE00004988069002800F0DC80FFE743F60800C3
:102DF000C4F20200006800F00C00082800F0858092
:102E0000FFE70498806902285CD1FFE76021C4F2E3
:102E1000472100200860FFF7E3FA0390FFE743F63D
:102E20000000C4F20200006800F000710020B0EB66
:102E3000516F0CD0FFE7FFF7D3FA0399401A03282C
:102E400004D3FFE703208DF81700AEE0E7E704990D
:102E5000C869D1F820C04B6A8A6A40EA0C0040EA8F
:102E60008310D2034FF6FF739A43A2F580321043CA
:102E7000C96A40EA016043F60401C4F20201086035
:102E80006021C4F2472101200860FFF7A9FA0390EE
:102E9000FFE743F60000C4F20200006800F0007192
:102EA0000020B0EB516F0CD1FFE7FFF799FA0399BF
:102EB000401A032804D3FFE703208DF8170074E0BD
:102EC000E7E721E06021C4F2472100200860FFF716
:102ED00087FA0390FFE743F60000C4F2020000689F
:102EE00000F000710020B0EB516F0CD0FFE7FFF74E
:102EF00077FA0399401A032804D3FFE703208DF8DB
:102F0000170052E0E7E7FFE74AE0049880690128EC
:102F100004D1FFE701208DF8170046E043F60400D6
:102F2000C4F202000068029004988069012831D040
:102F3000FFE7029800F480000499C969884229D10A
:102F4000FFE7029800F03F000499096A884221D106
:102F5000FFE7029847F6C07108400499496AB0EB50
:102F6000811F17D1FFE7029800F440300499896A65
:102F7000C9034FF6FF729143A1F58031884209D110
:102F8000FFE7029800F070600499C96AB0EB016F26
:102F900004D0FFE701208DF8170006E0FFE7FFE708
:102FA000FFE700208DF81700FFE79DF8170006B037
:102FB00080BD000080B582B00190019802F016F942
:102FC00002B080BD81B0009001B0704781B0009028
:102FD00001B0704785B003900291FFE7039890F825
:102FE0003C00012804D1FFE702208DF813007EE0A9
:102FF0000399012081F83C00FFE7FFE703990220D5
:1030000081F83D00039800684068019003980068CB
:1030100080680090019820F070000190029801688B
:103020000198084301900198039909684860039842
:1030300000680021C4F2010188423CD0FFE70398F8
:103040000068B0F1804F36D0FFE70398006840F287
:103050000041C4F2000188422DD0FFE703980068C8
:1030600040F60001C4F20001884224D0FFE7039833
:10307000006840F60041C4F2000188421BD0FFE71F
:103080000398006840F20041C4F20101884212D066
:10309000FFE70398006844F20001C4F2010188428E
:1030A00009D0FFE70398006841F60001C4F200016F
:1030B00088420ED1FFE7009820F08000009002982F
:1030C0004168009808430090009803990968886057
:1030D000FFE70399012081F83D00FFE703990020F5
:1030E00081F83C00FFE700208DF81300FFE79DF812
:1030F000130005B07047000080B582B000900098C2
:1031000020B9FFE701208DF807003FE0009890F814
:103110003D0040B9FFE70099002081F83C0000988D
:1031200000F038F8FFE70099022081F83D0000998F
:1031300051F8040B02F0F8F80099012081F84600DC
:10314000FFE70099012081F83E00009981F83F00D7
:10315000009981F84000009981F84100FFE7FFE7FE
:103160000099012081F84200009981F843000099FC
:1031700081F84400009981F84500FFE7009901209B
:1031800081F83D0000208DF80700FFE79DF807005B
:1031900002B080BD80B584B003900398006840F60B
:1031A0000041C4F20001884212D1FFE7FFE700208E
:1031B000029043F64000C4F20200016841F00801A9
:1031C0000160006800F0080002900298FFE724E028
:1031D0000398006841F20041C4F2000188421BD10B
:1031E000FFE7FFE70020019043F64000C4F2020031
:1031F000016841F020010160006800F020000190AA
:103200000198FFE73720009001210022FFF780F9A5
:103210000098FFF773F9FFE7FFE704B080BD0000F7
:1032200080B586B00490039100208DF80B00FFE775
:10323000049890F83C00012804D1FFE702208DF8A3
:103240001700ABE00499012081F83C00FFE7FFE79D
:103250000499022081F83D0004980068806801907C
:10326000019820F077000190019820F47F400190B0
:103270000198049909688860039800680090002804
:1032800072D0FFE7009810286ED0FFE70098202842
:103290006AD0FFE70098302866D0FFE70098402802
:1032A00055D0FFE70098502837D0FFE700986028F6
:1032B00040D0FFE7009870280BD0FFE70098B0F5EA
:1032C000805F05D0FFE70098B0F5005F16D052E0B0
:1032D00055E004980068039B5A689968DB6802F01F
:1032E000F5F80498006880680190019840F0770034
:1032F0000190019804990968886040E0049800688A
:10330000039B5A689968DB6802F0E0F8049801684A
:10331000886840F48040886031E004980068039A2F
:103320005168D26802F0BEFA04980068502102F099
:10333000E7F824E004980068039A5168D26802F024
:10334000D9FA04980068602102F0DAF817E00498CE
:103350000068039A5168D26802F0A4FA04980068E1
:10336000402102F0CDF80AE004980068039909684A
:1033700002F0C6F803E001208DF80B00FFE7049986
:10338000012081F83D00FFE70499002081F83C000E
:10339000FFE79DF80B008DF81700FFE79DF8170079
:1033A00006B080BD81B0009001B0704780B584B098
:1033B000039003980068C068029003980068006951
:1033C00001909DF804008007002824D5FFE79DF8B0
:1033D0000800800700281DD5FFE7039801686FF0FB
:1033E000020008610399012008770398006880694A
:1033F000800720B1FFE70398FFF7D4FF06E00398AA
:1034000000F046F9039800F057FAFFE7039900200F
:103410000877FFE7FFE79DF804004007002825D55F
:10342000FFE79DF80800400700281ED5FFE7039836
:1034300001686FF00400086103990220087703987F
:103440000068806910F4407F04D0FFE70398FFF71D
:10345000A9FF06E0039800F01BF9039800F02CFA8E
:10346000FFE7039900200877FFE7FFE79DF80400D6
:103470000007002824D5FFE79DF808000007002872
:103480001DD5FFE7039801686FF0080008610399F4
:103490000420087703980068C069800720B1FFE71F
:1034A0000398FFF77FFF06E0039800F0F1F8039818
:1034B00000F002FAFFE7039900200877FFE7FFE733
:1034C0009DF80400C006002825D5FFE79DF80800F8
:1034D000C00600281ED5FFE7039801686FF01000B2
:1034E000086103990820087703980068C06910F400
:1034F000407F04D0FFE70398FFF754FF06E00398EE
:1035000000F0C6F8039800F0D7F9FFE70399002010
:103510000877FFE7FFE79DF80400C00778B1FFE7F1
:103520009DF80800C00748B1FFE7039801686FF0F5
:1035300001000861039800F0C3F9FFE7FFE79DF879
:1035400004000006002810D5FFE79DF808000006DB
:10355000002809D5FFE7039801686FF08000086133
:103560000398FFF72FFDFFE7FFE79DF804004006F3
:10357000002810D5FFE79DF808004006002809D56F
:10358000FFE7039801686FF040000861039800F0BE
:103590009BF9FFE7FFE79DF804008006002810D59F
:1035A000FFE79DF808008006002809D5FFE703988B
:1035B00001686FF0200008610398FFF707FDFFE73F
:1035C000FFE704B080BD000080B588B00790002000
:1035D000069005900490039002900798006840F6CA
:1035E0000001C4F20001884223D1FFE7FFE7002079
:1035F000019043F63000C4F20200016841F0080176
:103600000160006800F0080001900198FFE74FF4A6
:103610008040029002200390012104910321059132
:10362000069040F60040C4F2020002A9FEF7FCFC3E
:103630002BE00798006840F60041C4F20001884280
:1036400022D1FFE7FFE70020009043F63000C4F2EC
:103650000200016841F080010160006800F0800014
:1036600000900098FFE74FF4E05002900220039092
:10367000002104910591069041F60040C4F2020039
:1036800002A9FEF7D1FCFFE7FFE708B080BD00000C
:1036900081B0009001B0704780B586B0049003916E
:1036A000029200208DF80700FFE7049890F83C0094
:1036B000012804D1FFE702208DF8170089E0049962
:1036C000012081F83C00FFE7FFE7029800900C28FA
:1036D00000F270800099DFE801F0076D6D6D206DDC
:1036E0006D6D3A6D6D6D530004980068039901F09B
:1036F0001DFF04980168886940F0080088610498FB
:103700000168886920F004008861039802690498C0
:10371000016888691043886150E004980068039943
:1037200001F07AFF04980168886940F400608861BC
:1037300004980168886920F48060886103980269B0
:1037400004980168886940EA0220886136E004989C
:103750000068039901F0DAFF04980168C86940F035
:103760000800C86104980168C86920F00400C861B5
:103770000398026904980168C8691043C8611DE094
:1037800004980068039902F03BF804980168C8693E
:1037900040F40060C86104980168C86920F4806042
:1037A000C8610398026904980168C86940EA022068
:1037B000C86103E001208DF80700FFE7FFE70499E7
:1037C000002081F83C00FFE79DF807008DF8170006
:1037D000FFE79DF8170006B080BD000080B582B0FD
:1037E0000090009820B9FFE701208DF807003FE026
:1037F000009890F83D0040B9FFE70099002081F85B
:103800003C00009800F038F8FFE70099022081F8AA
:103810003D00009951F8040B01F086FD009901204C
:1038200081F84600FFE70099012081F83E000099E9
:1038300081F83F00009981F84000009981F841002B
:10384000FFE7FFE70099012081F84200009981F825
:103850004300009981F84400009981F84500FFE792
:103860000099012081F83D0000208DF80700FFE756
:103870009DF8070002B080BD82B0019001980068F9
:1038800040F60001C4F20001884212D1FFE7FFE7D1
:103890000020009043F64000C4F20200016841F0AD
:1038A00004010160006800F0040000900098FFE748
:1038B000FFE702B07047000081B0009001B0704790
:1038C00081B0009001B0704781B0009001B07047A6
:1038D00080B586B004900391ADF80A20049890F862
:1038E0004200202848D1FFE7039820B1FFE7BDF848
:1038F0000A0020B9FFE701208DF8170040E0049985
:103900000120086304990020486304980399BDF8D6
:103910000A2002F00FFB8DF809000498006B0128C3
:1039200021D1FFE7FFE700200190049800680068BC
:10393000019004980068406801900198FFE7FFE754
:10394000FFE70498006850E8030F40F01000009073
:10395000FFE700990498026842E803100028F0D1BC
:10396000FFE7FFE703E001208DF80900FFE79DF87E
:1039700009008DF8170003E002208DF81700FFE71B
:103980009DF8170006B080BD80B586B00590ADF8F3
:10399000121004F02BFB01688A6800219047039005
:1039A0000598019003980168096B884701460198C2
:1039B000884217D1FFE7039801680A6940F20401C1
:1039C000C2F200010091904704F04CFC0099029073
:1039D000029809680A7849F20C41C0F6000104F027
:1039E0005FFCFFE7039801688A6A40F20401C2F2B3
:1039F0000001904706B080BD81B0009001B07047D3
:103A000080B592B0119011980068006810901198DC
:103A10000068C0680F901198006840690E900020FF
:103A20000D900C90109800F00F000D900D9888B933
:103A3000FFE79DF84000800600280AD5FFE79DF8C3
:103A40003C008006002804D5FFE7119802F020F919
:103A500002E2FFE70D98002800F0C280FFE79DF822
:103A60003800C00738B9FFE7BDF83C0010F4907F7C
:103A700000F0B680FFE79DF84000C00758B1FFE7AF
:103A80009DF83D00C00730B1FFE71199486C40F048
:103A900001004864FFE79DF84000400700280BD56F
:103AA000FFE79DF83800C00730B1FFE71199486C77
:103AB00040F002004864FFE79DF8400080070028BE
:103AC0000BD5FFE79DF83800C00730B1FFE711992B
:103AD000486C40F004004864FFE79DF84000000790
:103AE000002811D5FFE79DF83C008006002805D48A
:103AF000FFE79DF83800C00730B1FFE71199486C27
:103B000040F008004864FFE71198406C002866D038
:103B1000FFE79DF84000800600280AD5FFE79DF8E2
:103B20003C008006002804D5FFE7119802F0B0F8A9
:103B3000FFE7119800684069C0F380100C9011985D
:103B4000406C0007002804D4FFE70C9800283ED002
:103B5000FFE7119802F022F81198006840694006CA
:103B600000282FD5FFE7FFE7FFE71198006850E82E
:103B7000050F20F040000B90FFE70B9911980268A9
:103B800042E805100028F0D1FFE7FFE71198C06B6D
:103B900098B1FFE71198C16B45F64910C0F60000D7
:103BA00008651198C06BFDF773FF28B1FFE7119806
:103BB000C06B016D8847FFE703E01198FFF71CFF1A
:103BC000FFE703E01198FFF717FFFFE706E0119802
:103BD000FFF712FF119900204864FFE7FFE73BE180
:103BE0001198006B012840F01781FFE79DF8400015
:103BF000C006002840F11081FFE79DF83C00C00698
:103C0000002840F10981FFE7FFE700200A901198A2
:103C1000006800680A901198006840680A900A9845
:103C2000FFE71198006840694006002840F19A803B
:103C3000FFE71198C06B00684068ADF82600BDF83A
:103C40002600002875D0FFE7BDF826001199898D60
:103C500088426EDAFFE7BDF826001199C8851198F1
:103C6000C06BC069B0F5807F58D0FFE7FFE7FFE782
:103C70001198006850E8030F20F480700890FFE767
:103C800008991198026842E803100028F0D1FFE774
:103C9000FFE7FFE7FFE71198006850E8050F20F005
:103CA00001000790FFE707991198026842E80510A4
:103CB0000028F0D1FFE7FFE7FFE7FFE71198006872
:103CC00050E8050F20F040000690FFE70699119894
:103CD000026842E805100028F0D1FFE7FFE71199DC
:103CE000202081F84200119900200863FFE7FFE7D8
:103CF0001198006850E8030F20F010000590FFE7CE
:103D000005991198026842E803100028F0D1FFE7F6
:103D1000FFE71198C06BFDF745FEFFE71199022000
:103D200048631198818DC28D891A89B2FFF72CFEE4
:103D300017E0BDF826001199898D884210D1FFE760
:103D40001198C06BC069B0F5807F08D1FFE7119969
:103D5000022048631198818DFFF716FEFFE7FFE709
:103D6000FFE779E01199888DC98D401AADF81200EE
:103D70001198C08D00284ED0FFE7BDF81200002832
:103D800049D0FFE7FFE7FFE71198006850E8030F0D
:103D900020F490700390FFE703991198026842E8BD
:103DA00003100028F0D1FFE7FFE7FFE7FFE71198D6
:103DB000006850E8050F20F001000290FFE702992B
:103DC0001198026842E805100028F0D1FFE7FFE7EC
:103DD0001199202081F84200119900200863FFE723
:103DE000FFE71198006850E8030F20F010000190E1
:103DF000FFE701991198026842E803100028F0D10A
:103E0000FFE7FFE71199022048631198BDF81210EF
:103E1000FFF7BAFDFFE71FE09DF84000000600280D
:103E20000AD5FFE79DF83C000006002804D5FFE70F
:103E3000119802F049F90FE09DF840004006002873
:103E40000AD5FFE79DF83C004006002804D5FFE7AF
:103E5000119801F0EDFEFFE712B080BD80B582B091
:103E60000090009820B9FFE701208DF8070040E09E
:103E70000098806908B1FFE700E0FFE7009890F83C
:103E8000410040B9FFE70099002081F84000009808
:103E900000F034F8FFE70099242081F841000098F1
:103EA0000168C86820F40050C860009801F0A4FFC1
:103EB00000980168086920F4904008610098016842
:103EC000486920F02A00486100980168C86840F4F9
:103ED0000050C860009900204864009A202182F8B0
:103EE0004110009A82F84210009948638DF807004B
:103EF000FFE79DF8070002B080BD000080B59EB0CE
:103F00001D9000201C901B901A90199018901D98DD
:103F1000006841F20001C4F20101884240F0BB8018
:103F2000FFE7FFE70020179043F64400C4F20200C9
:103F3000016841F010010160006800F01000179066
:103F40001798FFE7FFE70020169043F63000C4F211
:103F50000200016841F002010160006800F0020007
:103F600016901698FFE7FFE70020159043F6300003
:103F7000C4F20200016841F001010160006800F034
:103F8000010015901598FFE78020189002200B90F3
:103F9000199000200F901A9003200C901B9007207E
:103FA0000D901C9040F20040C4F2020018A90E913E
:103FB000FEF73AF8DDF82CC00C9A0D980E990F9B7D
:103FC0004FF4007ECDF860E0CDF864C01A931B92E8
:103FD0001C900020C4F20200FEF726F80F9940F66C
:103FE0000020C2F20000109046F2B842C4F2020271
:103FF00002604FF00062426040228260C1604FF474
:104000008062026141618161C16101624162FDF7CB
:10401000F1FE18B1FFE7FCF735FDFFE7FFE71D985C
:1040200040F60021C2F2000181631D988863FFE71A
:1040300040F6A010C2F200000A9046F24041C4F2DD
:10404000020101604FF00061416000218160C160A8
:104050004FF48062026141618161C161016241622C
:10406000FDF7C8FE18B1FFE7FCF70CFDFFE7FFE71F
:104070001D9840F6A011C2F20001C1631D9888632B
:10408000FFE72520099000221146FEF741FA099822
:10409000FEF734FA39E11D98006844F60001C4F2D5
:1040A0000001884240F09380FFE7FFE70020149072
:1040B00043F64000C4F20200016841F4802101602F
:1040C000006800F4802014901498FFE7FFE70020B8
:1040D000139043F63000C4F20200016841F004017D
:1040E0000160006800F0040013901398FFE74FF49C
:1040F0004060189002201990002007901A90032029
:104100001B9007201C9040F60000C4F2020018A982
:10411000FDF78AFF079940F66020C2F20000089080
:1041200046F22802C4F2020202604FF000624260CE
:104130008160C1604FF48062026141618161C1614F
:1041400001624162FDF756FE18B1FFE7FCF79AFCE9
:10415000FFE7FFE71D9840F66021C2F20001C1634E
:104160001D988863FFE740F6C020C2F20000069069
:1041700046F25801C4F2020101604FF00061416053
:10418000402181600021C1604FF480620261416181
:104190008161C16101624162FDF72CFE18B1FFE748
:1041A000FCF770FCFFE7FFE71D9840F6C021C2F264
:1041B000000181631D988863FFE727200590042193
:1041C0000022FEF7A5F90598FEF798F99CE01D98E6
:1041D000006841F20041C4F20101884240F093803E
:1041E000FFE7FFE70020129043F64400C4F202000C
:1041F000016841F020010160006800F02000129089
:104200001298FFE7FFE70020119043F63000C4F258
:104210000200016841F040010160006800F04000C8
:1042200011901198FFE74FF48440189002201990E4
:10423000002003901A9003201B9008201C9041F648
:104240000000C4F2020018A9FDF7EEFE039940F643
:104250008030C2F20000049046F2A042C4F2020292
:1042600002604FF02062426040228260C1604FF4E1
:104270008062026141618161C16101624162FDF759
:10428000B9FD18B1FFE7FCF7FDFBFFE7FFE71D985D
:1042900040F68031C2F2000181631D988863FFE718
:1042A00040F62030C2F20000029046F22841C4F2EB
:1042B000020101604FF02061416000218160C16016
:1042C0004FF48062026141618161C16101624162BA
:1042D000FDF790FD18B1FFE7FCF7D4FBFFE7FFE720
:1042E0001D9840F62031C2F20001C1631D98886319
:1042F000FFE74720019004210022FEF709F9019809
:10430000FEF7FCF8FFE7FFE7FFE71EB080BD000007
:1043100080B58AB008900791ADF81A200593002067
:104320000290089890F84200202840F08880FFE72B
:10433000079820B1FFE7BDF81A0020B9FFE7012078
:104340008DF827007FE0089900204864089A222110
:1043500082F8421008990863FEF742F80290BDF80F
:104360001A0008998885BDF81A000899C885089828
:104370008068B0F5805F09D1FFE70898006928B927
:10438000FFE7002004900798039004E0079804904A
:1043900000200390FFE7FFE70898C08D002846D073
:1043A000FFE70898029B05996A46116020210022C8
:1043B00001F0D4FE40B1FFE70899202081F84200C7
:1043C00003208DF827003EE0049858B9FFE70898CD
:1043D000006840686FF35F200399088003980230FB
:1043E00003901FE008988068B0F5805F08D0FFE771
:1043F0000898806850B9FFE70898006930B9FFE76E
:104400000898006840680499087007E008980068F8
:10441000406800F07F0004990870FFE704980130BD
:104420000490FFE70899C88D0138C885B4E708995A
:10443000202081F8420000208DF8270003E00220B0
:104440008DF82700FFE79DF827000AB080BD000027
:1044500080B584B002900191ADF80220029890F8E6
:104460004200202817D1FFE7019820B1FFE7BDF8EF
:10447000020020B9FFE701208DF80F000FE002993C
:104480000020086302980199BDF8022001F052FD56
:104490008DF80F0003E002208DF80F00FFE79DF874
:1044A0000F0004B080BD000080B584B0029001917F
:1044B000ADF80220029890F84200202817D1FFE7BB
:1044C000019820B1FFE7BDF8020020B9FFE7012005
:1044D0008DF80F000FE002990020086302980199FF
:1044E000BDF8022001F0BEFD8DF80F0003E00220B0
:1044F0008DF80F00FFE79DF80F0004B080BD0000AD
:1045000081B0009001B0704781B0009001B0704759
:1045100080B58AB008900791ADF81A200593002065
:104520000290089890F84100202840F08180FFE731
:10453000079820B1FFE7BDF81A0020B9FFE7012076
:104540008DF8270078E00899002048640899212018
:1045500081F84100FDF744FF0290BDF81A00089968
:104560008884BDF81A000899C88408988068B0F556
:10457000805F09D1FFE70898006928B9FFE70020AC
:1045800004900798039004E007980490002003909B
:10459000FFE7FFE70898C08C78B3FFE70898029B15
:1045A00005996A4611608021002201F0D7FD40B1D3
:1045B000FFE70899202081F8410003208DF82700AB
:1045C0003AE0049858B9FFE7039800886FF35F203A
:1045D00008990968486003980230039008E004983D
:1045E0000078089909684860049801300490FFE752
:1045F0000899C88C0138C884CCE70898029B0599B3
:104600006A4611604021002201F0A8FD40B1FFE799
:104610000899202081F8410003208DF827000BE045
:104620000899202081F8410000208DF8270003E040
:1046300002208DF82700FFE79DF827000AB080BD13
:1046400080B586B004900391ADF80A20049890F8E4
:10465000410020286AD1FFE7039820B1FFE7BDF8A9
:104660000A0020B9FFE701208DF8170062E00398E7
:1046700004990862BDF80A0004998884BDF80A000C
:104680000499C884049900204864049A212182F87E
:10469000411004998A6B45F60931C0F60001D163D7
:1046A00004998A6B45F68531C0F6000111640499BE
:1046B0008A6B45F66511C0F60001D1640499896BD7
:1046C000086503A8019004980268806B0199096845
:1046D0000432BDF80A30FDF745FC58B1FFE70499F4
:1046E000102048640499202081F8410001208DF8B1
:1046F00017001FE0049801686FF040000860FFE7B2
:10470000FFE70498006850E8050F40F08000009033
:10471000FFE700990498026842E805100028F0D1EC
:10472000FFE7FFE700208DF8170003E002208DF877
:104730001700FFE79DF8170006B080BD84B0029017
:104740000191ADF80220029890F84100202826D16E
:10475000FFE7019820B1FFE7BDF8020020B9FFE7AD
:1047600001208DF80F001EE0019802990862BDF843
:10477000020002998884BDF802000299C884029957
:1047800000204864029A212182F8411002990A68A7
:10479000D16841F08001D1608DF80F0003E0022064
:1047A0008DF80F00FFE79DF80F0004B07047000080
:1047B00081B0009001B0704781B0009001B07047A7
:1047C000FFE7FEE780B582B003F05AF803F00EFC75
:1047D00001688A68002190470190019801688A6AFF
:1047E00040F20401C2F20001009190470099019843
:1047F00002681269904702B080BD000080B582B0A7
:1048000040F65010C2F20000009046F20041C4F29F
:104810000001016006214160002101918160C160B9
:104820004FF4403202614FF48012426101764176CA
:104830008176C17601774177FCF738FE18B1FFE742
:10484000FCF720F9FFE702B080BD000080B582B020
:1048500040F67810C2F20000009046F60001C4F263
:104860000001016006214160002101918160C16069
:104870004FF4403202614FF480124261017641767A
:104880008176C17601774177FCF710FE18B1FFE71A
:10489000FCF7F8F8FFE702B080BD000080B58AB0F1
:1048A000FFE70020099043F63000C4F202000168DF
:1048B00041F480010160006800F4800009900998CB
:1048C000FFE7FFE70020089043F63000C4F2020043
:1048D000016841F400110160006800F400100890C4
:1048E0000898FFE70C200190002206921146FDF780
:1048F0000FFE0198FDF702FE069A0E200290114667
:10490000FDF706FE0298FDF7F9FD069A392003909F
:104910001146FDF7FDFD0398FDF7F0FD069A3A20DC
:1049200004901146FDF7F4FD0498FDF7E7FD069AA3
:10493000452005901146FDF7EBFD0598FDF7DEFDDE
:10494000069A462007901146FDF7E2FD0798FDF70D
:10495000D5FD0AB080BD000086B0FFE700200590BD
:1049600043F63000C4F20200016841F00201016028
:10497000006800F0020005900598FFE7FFE70020BF
:10498000049043F63000C4F20200016841F0400197
:104990000160006800F0400004900498FFE7FFE722
:1049A0000020039043F63000C4F20200016841F099
:1049B00001010160006800F0010003900398FFE727
:1049C000FFE70020029043F63000C4F202000168C5
:1049D00041F008010160006800F0080002900298B0
:1049E000FFE7FFE70020019043F63000C4F2020029
:1049F000016841F004010160006800F004000190CA
:104A00000198FFE7FFE70020009043F63000C4F272
:104A10000200016841F080010160006800F0800040
:104A200000900098FFE706B07047000080B58AB09C
:104A30000021009109910891079106910591049137
:104A400003910291019140F6E030C2F2000040F67D
:104A50000002C4F200020260A722426081604FF6A9
:104A6000FF72C26001618161FEF7B8FE18B1FFE715
:104A7000FCF708F8FFE700200890099040F6E030C6
:104A8000C2F2000008A9FEF7A5FA18B1FFE7FBF78C
:104A9000F9FFFFE76020019000200290039005904D
:104AA00040F6E030C2F2000001A90822FEF7F4FD52
:104AB00018B1FFE7FBF7E6FFFFE740F6E030C2F290
:104AC0000000FEF781FD0AB080BD000080B58EB009
:104AD000002100910D910C910B910A91099108917F
:104AE000079106910591049103910291019140F67D
:104AF0002840C2F2000040F60042C4F20002026008
:104B0000416081604FF6FF72C26001618161FEF712
:104B1000F3FA18B1FFE7FBF7B5FFFFE74FF480505A
:104B20000A9040F62840C2F200000AA9FEF778FB7E
:104B300018B1FFE7FBF7A6FFFFE740F62840C2F2F7
:104B40000000FEF74BFE18B1FFE7FBF79BFFFFE706
:104B500000200890099040F62840C2F2000008A901
:104B6000FEF738FA18B1FFE7FBF78CFFFFE760208C
:104B7000019042F21070029000220392059240F6DA
:104B80002840C2F2000001A9FEF786FD18B1FFE738
:104B9000FBF778FFFFE740F62840C2F2000001A9CA
:104BA0000422FEF779FD18B1FFE7FBF76BFFFFE783
:104BB00040F62840C2F2000001A90822FEF76CFD71
:104BC00018B1FFE7FBF75EFFFFE740F62840C2F2AF
:104BD0000000FEF7F9FC0EB080BD000080B582B089
:104BE00000210191009140F67040C2F2000041F2B4
:104BF0000042C4F20002026053224260816040F22F
:104C0000E731C16080218161FEF776FA18B1FFE7D4
:104C1000FBF738FFFFE700200090019040F670405E
:104C2000C2F200006946FEF7D5F918B1FFE7FBF7BD
:104C300029FFFFE702B080BD80B582B040F6B840E2
:104C4000C2F20000019041F20001C4F201010160D2
:104C50004FF4E131416000218160C16001610C22AB
:104C600042618161C161FFF7F9F818B1FFE7FBF715
:104C700009FFFFE702B080BD80B582B040F600506A
:104C8000C2F20000019044F60001C4F2000101608C
:104C900048F2A061C0F2010141604FF4805181608F
:104CA0000021C1604FF4806202610C224261816187
:104CB000C161FFF7D3F818B1FFE7FBF7E3FEFFE7A9
:104CC00002B080BD80B582B040F64850C2F200000C
:104CD000019041F20041C4F2010101604FF4E13161
:104CE000416000218160C16001610C2242618161EB
:104CF000C161FFF7B3F818B1FFE7FBF7C3FEFFE7A9
:104D000002B080BDFFE7FEE7FFE7FEE788B007904F
:104D100006910592079800F0070004900498C0F1EE
:104D20000700052803D3FFE70420019004E004985E
:104D3000C0F107000190FFE7019803900498043048
:104D4000062803D8FFE70020009003E0049803380A
:104D50000090FFE70098029006980399012202FA5A
:104D600001F101390840029B984005999A40013AA7
:104D70001140084308B070477047000080B501F04B
:104D800075FA80BD80B586B005900491039240F21B
:104D90007C00C2F200000190FFE70198007818B98A
:104DA000FFE701F063FAFFE7FFE7EFF311804FF051
:104DB000200181F31188009005980499039A00F06E
:104DC00007F80290009880F31188029806B080BD21
:104DD00080B58AB0099008910792089804900998C4
:104DE00000EB400140F27C00C2F2000000EBC10089
:104DF0001830039003984069029040B1FFE7029891
:104E0000012819D0FFE7029802282CD032E003983D
:104E100001F07EFA059005980799884203D2FFE7D2
:104E20000020069007E00798069003980499079AD7
:104E300001F0F8FCFFE720E0039801F069FA059023
:104E400005980799884203D2FFE70598019002E090
:104E500007980190FFE70198069003980499069A35
:104E600001F0E0FC09E003980499079A01F068FC5E
:104E7000069002E000200690FFE706980AB080BD89
:104E800082B080B584B0079306920390029106A881
:104E90000090039802996A4600F008F80190019882
:104EA00004B0BDE8804002B07047000080B5A4B0F7
:104EB00023902291219207A81B9040201C90002053
:104EC0001D9023991F911E90FFE7229800788DF87E
:104ED00083002298013022909DF8830008B9FFE7F3
:104EE0006DE19DF88300252840F05C81FFE70020FC
:104EF000189001201A90FFE7229800788DF883001F
:104F00009DF883002338014604910D2829D804997F
:104F1000DFE801F01F27272727272727172707273D
:104F2000270F189840F00100189022980130229025
:104F30001AE0189840F00200189022980130229050
:104F400012E0189840F00400189022980130229046
:104F50000AE0189840F0080018902298013022903A
:104F600002E000201A90FFE7FFE71A980028C3D15B
:104F7000FFE700201790FFE7229800788DF8830064
:104F80009DF88300302805DBFFE79DF883003A2871
:104F900001DBFFE710E0229801302290179800EB28
:104FA00080019DF8830000EB410030381790FFE747
:104FB00001200028E0D1FFE7002019902298007816
:104FC0008DF883009DF883002E2825D1FFE72298D5
:104FD00001302290FFE7229800788DF883009DF839
:104FE0008300302805DBFFE79DF883003A2801DBCA
:104FF000FFE710E0229801302290199800EB800121
:105000009DF8830000EB410030381990FFE7012044
:105010000028E0D1FFE7FFE7229800788DF88300B1
:10502000FFE79DF883006C2805D0FFE79DF883001B
:10503000682808D1FFE72298013022902298007852
:105040008DF8830000E004E0FFE701200028E8D1AC
:10505000FFE79DF8830001460391252800F0988022
:10506000FFE7039858284FD0FFE70398632814D030
:10507000FFE7039864281FD0FFE70398702876D0D5
:10508000FFE70398732853D0FFE70398752827D0CC
:10509000FFE70398782837D07FE0219A1068011D38
:1050A000116000681A901A988DF81B009DF81B106B
:1050B0001BA801F009FB71E0219A1068011D116025
:1050C00000681A901A99199B1798DDF860C06A4613
:1050D000C2F804C010601BA80A2201F039F95DE093
:1050E000219A1068011D116000681A901A99199B85
:1050F0001798DDF860C06A46C2F804C010601BA8AB
:105100000A2201F00BFA49E0219A1068011D116092
:1051100000681A901A99199B1798DDF860C06A46C2
:10512000C2F804C010601BA8102201F0F7F935E0A6
:10513000219A1068011D116000680590FFE705982D
:1051400000788DF883000598013005909DF8830064
:1051500008B9FFE70AE09DF883101BA801F0B4FA34
:10516000FFE71E98B0F1FF3FE9DCFFE716E0219A68
:105170001068011D116000681A901A996846002293
:105180004260082303601BA8102201F0C7F905E064
:105190001BA8252101F098FA00E0FFE722980130D2
:1051A000229005E09DF883101BA801F08DFAFFE71F
:1051B000FFE71E98B0F1FF3F3FF787AEFFE71E986D
:1051C00001280EDBFFE71D9830B1FFE723981D9AF9
:1051D00007A9FFF7D7FDFFE71D991E9808441E9009
:1051E000FFE71E9824B080BD7047000080B582B0F4
:1051F000009000980138B0F1807F03D3FFE70120D1
:10520000019019E0009801384EF21401CEF200012D
:1052100008604FF0FF300F2103F014F94EF218012F
:10522000CEF20001002008604EF21002CEF2000221
:10523000072111600190FFE7019802B080BD0000D6
:1052400080B5FDF7D3F880BD80B594B008A83021B3
:10525000FBF706F900200790069005900490039054
:10526000FFE70020029043F64000C4F2020001680C
:1052700041F080510160006800F080500290029877
:10528000FFE7FFE70020019047F20000C4F20000B2
:10529000016841F480410160006800F480400190A1
:1052A0000198FFE7012008904FF480300990022018
:1052B0000E904FF480010F9106211091A8211191B9
:1052C00012900420139008A8FDF714FB18B1FFE713
:1052D000FBF7D8FBFFE70F2003900220049000208B
:1052E00005904FF4A05006904FF48050079003A80B
:1052F0000521FDF72FF918B1FFE7FBF7C3FBFFE727
:1053000014B080BD4EF68851CEF20001086840F41A
:10531000700008607047000080B540F67040C2F22F
:105320000000FEF743F880BD83B00290019102981F
:105330000068009002980021C4F20101884225D043
:10534000FFE70298B0F1804F20D0FFE7029840F2CB
:105350000041C4F20001884218D0FFE7029840F6ED
:105360000001C4F20001884210D0FFE7029840F625
:105370000041C4F20001884208D0FFE7029840F2E1
:105380000041C4F2010188420AD1FFE7009820F0F1
:105390007000009001984168009808430090FFE772
:1053A00002980021C4F20101884255D0FFE702981B
:1053B000B0F1804F50D0FFE7029840F20041C4F2B4
:1053C0000001884248D0FFE7029840F60001C4F28D
:1053D0000001884240D0FFE7029840F60041C4F245
:1053E0000001884238D0FFE7029840F20041C4F241
:1053F0000101884230D0FFE7029844F20001C4F274
:105400000101884228D0FFE7029844F20041C4F22B
:105410000101884220D0FFE7029844F60001C4F25F
:105420000101884218D0FFE7029841F60001C4F25A
:105430000001884210D0FFE7029841F60041C4F213
:105440000001884208D0FFE7029842F20001C4F24E
:10545000000188420AD1FFE7009820F440700090D4
:105460000198C168009808430090FFE7009820F079
:105470008000019949690843009001988068029969
:10548000C862019800680299886202980021C4F2FB
:105490000101884208D0FFE7029840F20041C4F2BF
:1054A0000101884205D1FFE701980069029908636C
:1054B000FFE70299086840F00400086002990120A3
:1054C000486100980299086003B0704785B0049065
:1054D000039102920193049880680090009820F450
:1054E0007F40009003980299019A41EA022101430A
:1054F00000980843009000980499886005B07047B0
:1055000083B002900191029880680090009820F08A
:105510007000009001980099084340F00700009047
:1055200000980299886003B07047000085B004902D
:1055300003910498006A01900499086A20F0010020
:10554000086204984068009004988069029002986C
:1055500020F070000290029820F00300029003985F
:105560000168029808430290019820F0020001901F
:105570000398816801980843019004980021C4F2BF
:105580000101884208D0FFE7049840F20041C4F2CC
:10559000010188420ED1FFE7019820F00800019038
:1055A0000398C168019808430190019820F0040015
:1055B0000190FFE704980021C4F20101884208D05D
:1055C000FFE7049840F20041C4F20101884213D180
:1055D000FFE7009820F480700090009820F400709D
:1055E00000900398416900980843009003988169EE
:1055F000009808430090FFE70098049948600298DB
:105600000499886103984068049948630198049953
:10561000086205B07047000085B0049003910498BB
:10562000006A01900499086A20F01000086204984A
:1056300040680090049880690290029820F4E0404D
:105640000290029820F4407002900398016802983A
:1056500040EA01200290019820F020000190039878
:105660008168019840EA0110019004980021C4F279
:105670000101884208D0FFE7049840F20041C4F2DB
:10568000010188420FD1FFE7019820F080000190CE
:105690000398C168019840EA01100190019820F038
:1056A00040000190FFE704980021C4F20101884204
:1056B00008D0FFE7049840F20041C4F2010188429B
:1056C00015D1FFE7009820F480600090009820F446
:1056D0000060009003984169009840EA81000090C2
:1056E00003988169009840EA81000090FFE70098E4
:1056F0000499486002980499886103984068049965
:10570000886301980499086205B0704785B00490D9
:1057100003910498006A01900499086A20F480704B
:1057200008620498406800900498C069029002984A
:1057300020F070000290029820F00300029003987D
:105740000168029808430290019820F400700190CB
:1057500003988168019840EA012001900498002193
:10576000C4F20101884208D0FFE7049840F20041EA
:10577000C4F2010188420FD1FFE7019820F40060D4
:1057800001900398C168019840EA012001900198B6
:1057900020F480600190FFE704980021C4F2010129
:1057A000884208D0FFE7049840F20041C4F20101AA
:1057B000884215D1FFE7009820F4805000900098AF
:1057C00020F40050009003984169009840EA0110CD
:1057D000009003988169009840EA01100090FFE76B
:1057E00000980499486002980499C8610398406839
:1057F0000499C86301980499086205B070470000D5
:1058000085B0049003910498006A01900499086A95
:1058100020F4805008620498406800900498C069A1
:105820000290029820F4E0400290029820F4407028
:10583000029003980168029840EA012002900198C2
:1058400020F40050019003988168019840EA0130EB
:10585000019004980021C4F20101884208D0FFE7BA
:10586000049840F20041C4F2010188420BD1FFE7E5
:10587000009820F48040009003984169009840EA25
:1058800081100090FFE700980499486002980499FD
:10589000C8610398406804990864019804990862F3
:1058A00005B0704785B00490039102920498006A95
:1058B00000900499086A20F0010008620498806949
:1058C0000190019820F0F00001900299019840EABF
:1058D00001100190009820F00A00009003990098B0
:1058E000084300900198049988610098049908621F
:1058F00005B0704785B00490039102920498006A45
:1059000000900499086A20F01000086204988069E9
:105910000190019820F4704001900299019840EAAA
:1059200001300190009820F0A000009003990098A9
:1059300040EA011000900198049988610098049948
:10594000086205B07047000080B582B001900198F0
:10595000806B009000990020C8850098FEF74CF8F5
:1059600002B080BD80B584B00390002002900398FF
:10597000806B0190019800684069C0B2C009029034
:10598000019890F8410021280AD1FFE7029838B128
:10599000FFE701990020C884019800F05DF9FFE756
:1059A000019800684069C0F380100290019890F857
:1059B000420022280AD1FFE7029838B1FFE7019997
:1059C0000020C885019800F0E9F8FFE70199486CCC
:1059D00040F0100048640198FEF70EF804B080BD56
:1059E00080B586B005900598806B04900598006896
:1059F0000068C00500285AD4FFE704990020C88534
:105A0000FFE7FFE70498006850E8030F20F4807078
:105A10000390FFE703990498026842E80310002806
:105A2000F0D1FFE7FFE7FFE7FFE70498006850E8E1
:105A3000050F20F001000290FFE702990498026828
:105A400042E805100028F0D1FFE7FFE7FFE7FFE796
:105A50000498006850E8050F20F040000190FFE72F
:105A600001990498026842E805100028F0D1FFE788
:105A7000FFE70499202081F842000498006B012878
:105A800014D1FFE7FFE7FFE70498006850E8030F31
:105A900020F010000090FFE700990498026842E8A7
:105AA00003100028F0D1FFE7FFE7FFE7FFE70499C5
:105AB000002048630498006B012805D1FFE7049893
:105AC000818DFDF761FF03E00498FEF719FDFFE704
:105AD00006B080BD80B582B001900198806B0090C7
